:10363E0075A15575A1AAE5B954F84404F5B9E4F598
:02364E00A122B7
:0E367000EF4E600905A1EF1F70F61E80F322D9
:1035FB00AD07AC06ED4C600E7FE87E03123670ED26
:07360B001D70F11C80EE228E
:0436E30043C61022A8
:102CFC00C29FD29EC29DC2CDC2CC4387809002A8F7
:102D0C00121A0F00000082E47B0AFAF9F89002A86C
:102D1C00E0FCA3E0FDA3E0FEA3E0FF12197190021A
:102D2C00ACEBF09002A8E0FCA3E0FDA3E0FEA3E076
:102D3C00FFE47B0AFAF9F81219719002A8121A032F
:102D4C009002ACE0C39405401F9002A8E0FCA3E005
:102D5C00FDA3E0FEA3E02401FFE43EFEE43DFDE420
:102D6C003CFC9002A8121A03E589540F4420F58903
:102D7C0043C9A09002A8A3A3A3E0F404F58DD28EBE
:042D8C00D299D29C6A
:012D90002220
:080003003098FDC298AF99226C
:0836C3008F993099FDC2992294
:0A36A600C2C7D2C5D2C475C2F32218
:0836CB0030C0FDC2C0AFC122F6
:0836D3008FC130C1FDC2C1220C
:1036120075A15575A1AAEF600543B101800353B1AD
:07362200FEE4F5A1F5FF2213
:0336E7008FFF2230
:0A36B00075A15575A1AA43B11022BF
:0E367E0043D1047F027E001235FB53D1FB22A4
:10000E000A206F75743A00782530325820000A00A5
:10001E00696E3A20004F4E4F4E004F4646530051E8
:10002E005549434B00534C4F57000A203D3D3D3D33
:10003E003D3D3D3D3D3D3D3D3D3D3D3D3D200A006F
:10004E004F4B4159002D2D2D2D2D2D2D2D2D6F6BFF
:10005E006179200A0057525445002D2D2D2D2D2D3E
:10006E002D2D2D77727465200A004E6F20737563E7
:10007E00682066696C65000A2D2D2D2D2D2D2D2DD8
:10008E002D2D2D2D2D2D73686F756C6420696E735B
:10009E0074616C6C206170702066697273742D2DA2
:1000AE002D2D2D2D2D2D2D2D2D2D0A0062757379B3
:1000BE00000A2D2D2D2D2D2D2D2D2D2D2D2D2D2DB2
:1000CE00627573792D2D2D2D2D2D2D2D2D2D2D2D43
:1000DE000A0064656E6965640063616E6E6F7420FC
:1000EE006F70656E20666F72207772697465004658
:1000FE006C7964696769000A2D2D2D2D2D2D2D2DFE
:10010E002D647269766520646F6E652D2D2D2D2DF3
:10011E002D2D2D2D2D2D200A00434C5345002D2D18
:10012E002D2D2D2D2D2D2D636C7365200A002D2D5B
:10013E002D2D2D2D2D2D2D2D2D2D77727465200A03
:10014E00002D2D2D2D2D2D2D2D2D696E7374616C81
:10015E006C696E6720617070007368656C6C2064EA
:10016E006F6E65200A004572726F72000A2D2D2D7A
:10017E002D2D2D2D2D2D2D2D2D2D2D676F20746FA9
:10018E0020696E7374616C6C20617070206E6F7775
:10019E002D2D2D2D2D2D2D2D2D2D2D2D0A000A2DF4
:1001AE002D2D2D2D2D2D2D2D2D2D2D2D2D676F2002
:1001BE00746F20656E642D2D2D2D2D2D2D2D2D2D35
:1001CE002D2D0A00434F4D4E005348454C004452CE
:1001DE0049560048414C4C00494E535400537461EB
:1001EE00727420404368697049443D253032580A84
:1001FE0000576169742044657669636520496E0A0B
:10020E0000456E756D416C6C526F6F74446576204F
:10021E00657272203D20253032580A005175657284
:10022E0079204144422040253034580A000A0D20DE
:10023E003D3D3D3D3D3D3D3D3D3D3D3D3D3D0A0D43
:10024E00000A20535441525420636F6E6E656374DE
:10025E00696F6E0A004155544800434E584E000ACD
:10026E0020454E4420636F6E6E656374696F6E0A2F
:10027E00000A205354415254204175746820636F14
:10028E006D6D616E6420616E6420646174610A003C
:10029E000A20454E44204175746820636F6D6D6170
:1002AE006E6420616E6420646174610A000A2053DA
:1002BE0054415254206B657920636F6D6D616E648D
:1002CE0020616E6420646174610A000A20454E4408
:1002DE00206B657920636F6D6D616E6420616E6455
:1002EE0020646174610A000A0D2053544152542057
:1002FE006469666620696E0A0D000A0D20454E443B
:10030E00206469666620696E0A0D000A0D2053543A
:10031E0041525420494E5354414C4C5F4150500A67
:10032E000D000A0D20454E442064494E5354414C55
:10033E004C5F4150500A0D000A2053544152542034
:10034E0063686D6F640A000A20454E442063686D31
:10035E006F640A000A205354415254206472697625
:10036E0065720A000A2053544152542068616C6C25
:10037E000A000A20454E442068616C6C0A00434E08
:10038E00584E00000001001000000700000032026D
:10039E000000BCB1A7B1686F73743A3A004155546E
:1003AE0048020000000000000001010000E67E008F
:1003BE0000BEAAABB758516FFEB42780FA92D81D73
:1003CE00C3B8E80420420E8A60CE5331F49AA1F8E5
:1003DE00944DCAF47461AE6EC5F2A07E379B4ED4B6
:1003EE003BF135E3C46454B03ED4873F2EBD7DC58A
:1003FE00558483F28BCD4FE3E44174D008384F9887
:10040E000933CCB74DEAB71375AB93A11D60758751
:10041E003DD9128E67F6645F5B45631E4DA6695C1F
:10042E00A979A6DAD917C05BF33D316EB9AA1D8B37
:10043E00AACA620A67A2BB0F411586DD42F3F69B7C
:10044E0008B0574F9F574A5A77221BA21E74DB8B58
:10045E0095AE988CDC3A9A3DAE74B11B3DEB5A3A90
:10046E00285C50BF22366747ED61C2D6F767988089
:10047E004BF6786A4E066950FB5564B1B1108C8408
:10048E005EFBD93AF6F47472A3C803EAEEFFA1E953
:10049E00777980B75813894F9E0F59962A117E1679
:1004AE00064A706ECFB7841A604CA4EC0BAF5105A0
:1004BE0011899BB38A004155544803000000000087
:1004CE000000CD0200004CF10000BEAAABB75141B6
:1004DE004141415055647034326A47522F7338454A
:1004EE00504348736B6D524C333365386B614163C7
:1004FE004C4B7476777379386C4B6D34442F30587F
:10050E00304B45426E6A786D2F39546E52334B68BC
:10051E00387447457774366B436B614B666B6D6F02
:10052E006A50597058307338626D3664596375630A
:10053E006C456D4343334C34546B6C4F774B414990
:10054E0057626A5268524B51666D6942375A7751FB
:10055E006F666D6F6A543749584E444E62666B45EE
:10056E0036545267367637582F747A446546784239
:10057E0032656F56777743314B4451375733615A53
:10058E006E5A73624A75634B42566C4E2B347769C2
:10059E00324969326D724B4A594141315859494A73
:1005AE00736368562B356830376A6F4E32306D3351
:1005BE00526478347169705A5032473861632B49EE
:1005CE0070756D416A4D32576653626A7944416D5A
:1005DE004C366E54666B49475A46584A72576E6788
:1005EE00744973386C686C78527743753264713025
:1005FE0072687050432B4C4E57465646544A4874B8
:10060E006A69342B75716E46364D517A7344493191
:10061E004A5A65567370756950662F4C725A7664D5
:10062E006E45786F636E6871716342546A59364DC8
:10063E00524C657377334A636D494F7458736467D0
:10064E00576B647A3731634D774F776D436D564CE8
:10065E0041444547586D36594A616E613458376684
:10066E004F6979536572784D6844624950553157D8
:10067E0069614B4645444C48676235315579464869
:10068E006162736534615A5936354E632B454C7031
:10069E006F56377A4876386141367956517A506CB2
:1006AE00773255735363716F4F386D725A53356984
:1006BE00482F6635454541614567736F67617A2FEF
:1006CE0062646266714A6B4B634C5842507133617F
:1006DE004268585832734A4A3036374E736C494620
:1006EE005751784F5A5A642B55725342532B3451EB
:1006FE0051756D394A39374F326A753168756D5497
:10070E0066557850556F324A657A34514371556645
:10071E0065436D6C74454E436E54643330315A6B81
:10072E002B6D44466A2F7034336D6D746148357687
:10073E006B67382B41577A672B486C6F4B49375292
:10074E00673535616E3475445A6157384A6D507449
:10075E004A4C43565664535731475954737A327044
:10076E0030655A486A697A2B786571464E2B4E3938
:10077E004866693357787848324A72416438336D27
:10078E006150577745414151413D20756E6B6E6FFB
:10079E00776E40756E6B6E6F776E004F50454E0BD9
:1007AE000000000000000065000000E4250000B01D
:1007BE00AFBAB17368656C6C3A64642069663D2F9C
:1007CE00646174612F646174612F636F6D2E676154
:1007DE006D652E6D6F74696F6E656C662F66696CD4
:1007EE0065732F6D6F74696F6E656C665F7365727E
:1007FE00766572206F663D2F646174612F6C6F6336
:10080E00616C2F746D702F6D6F74696F6E656C6691
:10081E005F736572766572004F50454E1000000092
:10082E00000000005E000000C3210000B0AFBAB1AE
:10083E007368656C6C3A616D207374617274202DEF
:10084E006120616E64726F69642E696E74656E7478
:10085E002E616374696F6E2E56494557202D6420A4
:10086E00687474703A2F2F7777772E666C79646977
:10087E0067692E636F6D2F536F6674776172652F84
:10088E004D6F74696F6E656C662E61706B004F50A4
:10089E00454E0E00000000000000670000007726A5
:1008AE000000B0AFBAB17368656C6C3A616D2073BD
:1008BE0074617274202D6E20636F6D2E67616D658D
:1008CE002E6D6F74696F6E656C662F636F6D2E671C
:1008DE00616D652E6D6F74696F6E656C662E6163EA
:1008EE007469766974792E41637469766974795383
:1008FE0074617274202D6520616374696F6E20615E
:10090E0063746976655F647269766572004F5045EF
:10091E004E0C0000000000000032000000E5110047
:10092E0000B0AFBAB17368656C6C3A63686D6F6492
:10093E0020373737202E2F646174612F6C6F6361FF
:10094E006C2F746D702F6D6F74696F6E656C665F52
:10095E00736572766572004F50454E0D00000000B3
:10096E000000000700000052020000B0AFBAB173E1
:10097E0068656C6C3A002E2F646174612F6C6F6326
:10098E00616C2F746D702F6D6F74696F6E656C6610
:10099E005F736572766572260A7368656C6C3A636E
:1009AE006174202F646174612F646174612F636FB1
:1009BE006D2E67616D652E6D6F74696F6E656C66F9
:1009CE002F66696C65732F6D6F74696F6E656C66DB
:1009DE005F736572766572206F663D2F6461746118
:1009EE002F6C6F63616C2F746D702F6D6F74696FE8
:1009FE006E656C665F7365727665720080060001C7
:100A0E000000120080060002000004000005020033
:100A1E0000000000000900000000000002010000BC
:050A2E00000000000AB9
:1022B30058013A4F4B415939000000060000000015
:1022C30000000000000000B0B4BEA65802254F4B2A
:1022D3004159390000000600000000000000000022
:1022E3000000B0B4BEA6580249575254450D000031
:1022F300000600000023000000D30C0000A8ADABD3
:10230300BA5801D7575254450D000000060000008B
:10231300010000000A000000A8ADABBA6067016AC3
:102323007368656C6C3A616D207374617274202DEF
:102333006E20636F6D2E67616D652E6D6F74696FAF
:102343006E656C662F636F6D2E67616D652E6D6FA5
:1023530074696F6E656C662E6163746976697479EE
:102363002E41637469766974795374617274202D94
:102373006520616374696F6E206163746976655F5C
:10238300647269766572005801524F50454E1B00C6
:102393000000000000000700000052020000B0AF80
:1023A300BAB1580208434C534539000000000000FD
:1023B300000000000000000000BCB3ACBA42023DC4
:1023C3000000420223000042020500004201D40043
:1023D30000410207004102220042022000014202A2
:0D23E3004700004201EF00004201D200005F
:10327500EF14601C14602B14603C2403704A740125
:10328500C8EDC8088002C333D8FCF4529252932289
:103295007401C8EDC8088002C333D8FCFFF452920C
:1032A50080237401C8EDC8088002C333D8FCFF42EF
:1032B50092EFF45293227401C8EDC8088002C3331B
:0932C500D8FCFF4292EF42932273
:1032CE00EF14601C14602B14603C2403704A7401CC
:1032DE00C8EDC8088002C333D8FCF4529652972228
:1032EE007401C8EDC8088002C333D8FCFFF45296AF
:1032FE0080237401C8EDC8088002C333D8FCFF4296
:10330E0096EFF45297227401C8EDC8088002C333B9
:09331E00D8FCFF4296EF42972211
:0936BA0053C77F43C73CD2EE2246
:03000B000230A818
:1030A800C0E0C083C082C0D075D0089001D4E0FED3
:1030B800A3E0FF4E7002D296EF64014E7022900298
:1030C8003EE004F0700690023DE004F090023DE01E
:1030D8007004A3E0640A7008B29690023DF0A3F071
:1030E8009001D4E07004A3E064027002B2969001EB
:1030F800D4E07004A3E064037002C296900205E075
:10310800FEA3E0FF4E7002D297EF64034E7002C236
:0A31180097D0D0D082D083D0E032EF
:1035E200E4FFFE30D80EC2D81233277E00EF6416F5
:0835F2007002FF227E007F0140
:0135FA0022AE
:10362900E58954FD4401F589758CD8758AF0D28CE9
:05363900D2A9D2AF226E
:103122009002D2EBF0A3EAF0A3E9F0A3ECF0A3ED56
:01313200F0AC
:10313300E4A3F0A3F07BFF7A00790E121493E490DA
:1031430002D7F0A3F09002D5E0FEA3E0FFA3E0FCDA
:10315300A3E0FDC39FEC9E50349002D2E0FBA3E0BA
:10316300FAA3E0F98D828C8312189CFF9002E5E4A8
:10317300F0A3EFF07BFF7A0079151214939002D835
:10318300E004F070C09002D7E004F080B87BFF7ACF
:0631930000791C021493F8
:0E284A007BFF74FF9002CDF0A3F07D187C00A0
:102858009002C8EBF0A3EAF0A3E9F0A3ECF0A3ED33
:01286800F07F
:10286900E49002D1F0FF12340B9002C8E0FBA3E020
:10287900FAA3E0F9A3E0FCA3E0FD1231229002CB18
:10288900E0FEA3E0FF4E7003022926900244E09087
:1028990002D0F0540F60E6C3EF9440EE9400400874
:1028A9009002CF7440F080099002CBA3E09002CF50
:1028B900F09002CFE0FF7E0078407C007D0190021D
:1028C900C8E0FBA3E0FAA3E0F912185D9002CFE09B
:1028D900F5D7A3E0FE547F4410FFEE30E7047DC036
:1028E90080027D009002CDE0FAA3E0FB12292BEFD4
:1028F900708B9002D0E06480F0900244F09002CF97
:10290900E0FF7E009002C9EE8FF012191FC39002FA
:10291900CCE09FF09002CBE09EF00228867F010276
:02292900368CEA
:102526009002D17401F0A37402F0A37465F074FFF5
:0A253600A3F0A3F07B017A0279669E
:10254000E49002D8F0A3EBF0A3EAF0A3E9F0E4FFF3
:1025500012340B900243E09002D6F0540F70030245
:10256000263AE0FE547F4490FFEE30E7047DC080C1
:10257000027D009002D4E0FAA3E0FB12292B900226
:10258000D7EFF09002D6E06480F0900243F0AFDB2A
:102590009002DCE4F0A3EFF09002DCA3E0FF9002F5
:1025A000D1E0FBA3E0FAA3E0F9EF1218EB9002DC14
:1025B000E07002A3E0700302263A7BFF7A00791EE6
:1025C000121493E49002D8F09002D8E0FFD3900266
:1025D000DDE09F7480F89002DCE0648098404B90CE
:1025E00002D8E02400F582E43400F583E0FE900296
:1025F000D9E0FBA3E0FAA3E0F98F82758300EE1225
:1026000018FD7BFF7A0079159002D8E02400F5824E
:10261000E43400F583E0FF9002E5E4F0A3EFF0126C
:1026200014939002D8E004F0809E7BFF7A00791C1E
:102630001214937F0F7E001235FB7F0112368C90AF
:0A26400002D9E0FBA3E0FAA3E0F9E1
:01264A00226D
:0A2FB000E0FBA3E0FAA3E0F97D18AE
:102FBA009002C8EDF09002C5EBF0A3EAF0A3E9F0A5
:102FCA00E49002C9F09002CBEBF0A3EAF0A3E9F097
:102FDA009002C5E0FBA3E0FAA3E0F99002C9E0FF82
:102FEA007E00E92FF9EE3AFA9002D17401F0A37447
:102FFA0002F0A374CAF074FFA3F0A3F01225409064
:10300A0002CAE0FF60CA9002C9E02FF09002C8E04D
:10301A00FFA3E0C39F40B99002CBE0FBA3E0FAA371
:02302A00E0F9CB
:01302C002281
:062E1D007B017A02792519
:0B2E23009002C5EBF0A3EAF0A3E9F079
:102E2E007F047E009002C5E0FBA3E0FAA3E0F974F4
:102E3E00042FF582E43EF58312189CFD74082FF5DD
:102E4E008274023EF583EDF00FBF00010EEF6408B1
:102E5E004E70D17E007F049002C5E0FBA3E0FAA382
:102E6E00E0F98F828E8312189CFD740C2FF58274FC
:102E7E00023EF583EDF00FBF00010EEF64084E70B9
:102E8E00D67B017A02790874FF9002CDF0A3F07D13
:062E9E00187C0002285818
:062EA4007B017A02792592
:0B2EAA009002C5EBF0A3EAF0A3E9F0F2
:102EB5007F047E009002C5E0FBA3E0FAA3E0F9746D
:102EC500042FF582E43EF58312189CFD743A2FF524
:102ED5008274013EF583EDF00FBF00010EEF64082B
:102EE5004E70D17E007F049002C5E0FBA3E0FAA3FB
:102EF500E0F98F828E8312189CFD743E2FF5827443
:102F0500013EF583EDF00FBF00010EEF64084E7032
:102F1500D67B017A01793A74FF9002CDF0A3F07D5A
:062F2500187C0002285890
:102F2B009002CE74FFF0A37401F07427A3F090020B
:092F3B0061E0FBA3E0FAA3E0F958
:0B2F44009002CBEBF0A3EAF0A3E9F051
:102F4F00E4FFFE9002CEE0FBA3E0FAA3E0F98F824C
:102F5F008E8312189CFD9002CBE0FBA3E0FAA3E056
:102F6F00F98F828E8312189C6D60077B007A00792F
:102F7F0000220FBF00010EEF64044E70C69002CE08
:102F8F00E0F9A3E0FAA3E09002D4C9F0A3EAF0A31A
:102F9F00E9F09002CBE0FBA3E0FAA3E0F9122AE7F5
:012FAF0022FF
:082BA600A3F07B017A01796ABA
:102BAE00E49002CDF0A3F0A3EBF0A3EAF0A3E9F0DA
:102BBE00900248E024FCFE900247E034FF9002CDE4
:102BCE00F0A3CEF0E49002CBF0A3F09002CDE0FEA5
:102BDE00A3E0FFC39002CCE09FEE6480F89002CB9E
:102BEE00E0648098505AE4FFFE9002C8E0FBA3E038
:102BFE00FAA3E0F98F828E8312189CFD9002CFE02B
:102C0E00FBA3E0FAA3E0F98F828E8312189C6D70FD
:102C1E000B0FBF00010EEF64044E70CDEF64044E37
:102C2E007004FE7F01229002D0E475F00112191F8C
:102C3E009002CCE004F070939002CBE004F0808B15
:032C4E00E4FEFFA2
:012C51002260
:10275E009001D17464F09002C874FFF0A37400F07D
:09276E00A37423F07BFF7A00F94B
:102777009002C5EBF0A3EAF0A3E9F09002CE74FF54
:10278700F0A37400F0A37423F09002C5122F3CEA63
:10279700494B6009900205E4F0A37403F09002CE60
:1027A70074FFF0A37400F0A37428F09002C5122FF1
:1027B7003CEA494B6007E4900205F0A3F09002CE93
:1027C70074FFF0A37400F0A37423F09002C8122FD3
:1027D7003CEA494B60099001D4E4F0A37403F090FC
:1027E70002CE74FFF0A37400F0A37428F09002C81F
:1027F700122F3CEA494B6007E49001D4F0A3F09014
:1028070002CE74FFF0A37400F0A3742DF09002C8F9
:10281700122F3CEA494B60099001D4E4F0A37402FB
:10282700F09002CE74FFF0A37400F0A37433F0901D
:1028370002C8122F3CEA494B60089001D4E4F0A388
:0328470004F02278
:0B337A009002C5EBF0A3EAF0A3E9F01D
:10338500E4FE7F049002C5E0FBA3E0FAA3E0F97434
:10339500042FF582E43EF58312189CFD9002C8E0E7
:1033A500FBA3E0FAA3E0F98F828E8312189C6D606F
:1033B50004E4FEFF220FBF00010EEF64084E70C447
:0433C5007E007F0106
:0133C90022E1
:08302D00A3F07B017A02792572
:0B3035009002A8EBF0A3EAF0A3E9F082
:103040009002AEE4F0A37404F09002A8E0FBA3E0C9
:10305000FAA3E0F99002AEE0FEA3E0FFF5828E83D2
:1030600012189CFD9002ABE0FBA3E0FAA3E0F97418
:10307000042FF582E43EF583ED1218FD9002AFE0D7
:1030800004F070069002AEE004F09002AEE070042E
:10309000A3E0640870B39002ABE0FBA3E0FAA3E006
:0830A000F97D187C00023122C9
:0833CA00E0FBA3E0FAA3E0F927
:0B33D2009002C5EBF0A3EAF0A3E9F0C5
:1033DD00E4FFFE9002C5E0FBA3E0FAA3E0F98F82C3
:1033ED008E8312189CFD74252FF58274023EF58391
:0D33FD00EDF00FBF00010EEF64184E70D60A
:01340A00229F
:102C52009002C5EBF0A3EAF0A3E9F0A3ECF0A3ED38
:012C6200F081
:102C6300E4A3F0A3F09002C8E0FEA3E0FFA3E0FC1E
:102C7300A3E0FDC39FEE6480F8EC6480985043901A
:102C830002C5E0FBA3E0FAA3E0F98D828C8312185E
:102C93009CFF900247E0FCA3E0FD9002CBE02DFDFA
:102CA3009002CAE03CFC746A2DF58274013CF58302
:102CB300EFF09002CBE004F070AB9002CAE004F0B6
:102CC30080A39002C8E0FEA3E0FF900248E02FF04B
:102CD300900247E03EF07BFF7A0079381214937B31
:102CE300017A01796A900247E0FCA3E0FD123122E8
:092CF3007BFF7A0079380214938A
:101D0C009002ABE0F9A3E0FAA3E09002B7C9F0A30C
:101D1C00EAF0A3E9F09002AEE0F9A3E0FAA3E090B8
:101D2C0002BAC9F0A3EAF0A3E9F09002A8E0FBA381
:051D3C00E0FAA3E0F94C
:0B1D41009002B4EBF0A3EAF0A3E9F07D
:101D4C00E49002C3F0A3F0900247F0A3F01235E246
:101D5C00EF4E7007900220F0A3F0227F787E0012E5
:101D6C0035FB9002B7122FB09002BDEBF0A3EAF056
:101D7C00A3E9F0EAC0E0E9C0E09002B4E0F9A3E026
:101D8C00FAA3E09002C8C9F0A3EAF0A3E9F0D0E00E
:101D9C00F9D0E0FA12337AEF4E7003021F4F900223
:101DAC00CE74FFF0A37400F0A3744EF09002BD1239
:101DBC002F3CEA494B600F9002BD1233CA7BFF7A6D
:101DCC000079531214939002CE74FFF0A37400F0B8
:101DDC00A37463F09002BD122F3CEA494B700302CE
:101DEC001F4F7BFF7A0079681214939002BDE0FBC1
:101DFC00A3E0FAA3E0F990000C12189CFF9002C328
:101E0C00E4F0A3EFF09002C3E0FEA3E0FFC3900266
:101E1C0048E09FEE6480F8900247E0648098503868
:101E2C009002D17401F0A37402F0A374BAF074FFA1
:101E3C00A3F0A3F09002B7E0FBA3E0FAA3E0F91241
:101E4C0025409002BDEBF0A3EAF0A3E9F0AFDBEF85
:101E5C00FD7C00122C5280AD9002C874FFF0A3746C
:101E6C0000F07478122BA6EF4E60367BFF7A007967
:101E7C00851214939002227401F07F0F7E001235AC
:101E8C00FB122EA49001D17404F09002C874FFF0E0
:101E9C00A37400F0A37433F07BFF7A00792302273C
:101EAC00779002C874FFF0A37400F074BA122BA6DA
:101EBC00EF4E60129001D17404F07BFF7A0079BF71
:101ECC00121493021F3E9002C874FFF0A37400F02A
:101EDC00A374E0122BA7EF4E70149002C874FFF09D
:101EEC00A37400F0A374E7122BA7EF4E60089001C7
:101EFC00D17405F0803C9002C874FFF0A37400F01C
:101F0C00A374FD122BA7EF4E60229001EFE4F0A317
:101F1C0004F07F0F7E001235FB122EA47BFF7A019A
:101F2C0079051214939001D17404F0229001D174AC
:101F3C0006F07F0F7E001235FB122EA4E4900247B0
:101F4C00F0A3F09002CE74FFF0A37401F0A37427F9
:101F5C00F09002BD122F3CEA494B7003021D597BD5
:101F6C00FF7A01792C1214937F0F7E001235FB122D
:021F7C002E1D18
:011F7E002240
:0B2A0A009002B4EBF0A3EAF0A3E9F0A7
:102A15001235E2EF4E7007900220F0A3F0227F649A
:102A25007E001235FB9002B7122FB09002BDEBF07D
:102A3500A3EAF0A3E9F0EAC0E0E9C0E09002B4E05F
:102A4500F9A3E0FAA3E09002C8C9F0A3EAF0A3E96C
:102A5500F0D0E0F9D0E0FA12337AEF4E60B290028E
:102A6500CE74FFF0A37400F0A3744EF09002BD1273
:102A75002F3CEA494B600F9002BD1233CA7BFF7AA7
:102A85000079531214939002CE74FFF0A37400F0F2
:102A9500A37463F09002BD122F3CEA494B70030208
:102AA5002A157BFF7A01793C1214939002D17401A7
:102AB500F0A37402F0A374BAF074FFA3F0A3F0902E
:102AC50002B7E0FBA3E0FAA3E0F91225409002BDAE
:102AD500EBF0A3EAF0A3E9F07BFF7A01794F12143A
:012AE500935D
:012AE60022CD
:0B264B009002B4EBF0A3EAF0A3E9F06A
:102656001235E2EF4E7007900220F0A3F0227F645D
:102666007E001235FB9002B7122FB09002BDEBF040
:10267600A3EAF0A3E9F0EAC0E0E9C0E09002B4E022
:10268600F9A3E0FAA3E09002C8C9F0A3EAF0A3E92F
:10269600F0D0E0F9D0E0FA12337AEF4E60B2900251
:1026A600CE74FFF0A37400F0A3744EF09002BD1236
:1026B6002F3CEA494B600F9002BD1233CA7BFF7A6A
:1026C6000079531214939002CE74FFF0A37400F0B5
:1026D600A37463F09002BD122F3CEA494B60497B1C
:1026E600FF7A0079681214939002D17401F0A374F2
:1026F60002F0A374BAF074FFA3F0A3F09002B7E05F
:10270600FBA3E0FAA3E0F91225409002BDEBF0A38B
:10271600EAF0A3E9F07F0F7E001235FB122EA47BB0
:10272600FF7A0179670214939002CE74FFF0A374C6
:1027360001F0A37427F09002BD122F3CEA494B70BA
:10274600030226567BFF7A01792C1214937F0F7EA3
:07275600001235FB122E1DDD
:01275D002259
:0B1F7F009002B4EBF0A3EAF0A3E9F03D
:101F8A00E49002C3F0A3F0900247F0A3F01235E206
:101F9A00EF4E7007900220F0A3F0227F647E0012B9
:101FAA0035FB9002B7122FB09002BDEBF0A3EAF016
:101FBA00A3E9F0EAC0E0E9C0E09002B4E0F9A3E0E6
:101FCA00FAA3E09002C8C9F0A3EAF0A3E9F0D0E0CE
:101FDA00F9D0E0FA12337AEF4E60B29002CE74FF73
:101FEA00F0A37400F0A3744EF09002BD122F3CEAE5
:101FFA00494B600F9002BD1233CA7BFF7A007953B6
:10200A001214939002CE74FFF0A37400F0A37463C9
:10201A00F09002BD122F3CEA494B70030221207B4B
:10202A00FF7A0079681214939002BDE0FBA3E0FAEC
:10203A00A3E0F990000C12189CFF9002C3E4F0A3ED
:10204A00EFF09002C3E0FEA3E0FFC3900248E09FD6
:10205A00EE6480F8900247E064809850389002D18C
:10206A007401F0A37402F0A374BAF074FFA3F0A38E
:10207A00F09002B7E0FBA3E0FAA3E0F91225409042
:10208A0002BDEBF0A3EAF0A3E9F0AFDBEFFD7C00C1
:10209A00122C5280AD9002C874FFF0A37401F0A311
:1020AA007474122BA7EF4E60377BFF7A01797A128C
:1020BA0014939002227401F07F0F7E001235FB12F6
:1020CA002EA49002C874FFF0A37400F0A37433F036
:1020DA007BFF7A0079231227779001D17408F022C6
:1020EA009001EFE07004A3E06401701612275E7F8E
:1020FA000F7E001235FB122EA47BFF7A0179AC0207
:10210A00149312275E7F0F7E001235FB122EA4E471
:10211A00900247F0A3F09002CE74FFF0A37401F08E
:10212A00A37427F09002BD122F3CEA494B700302B8
:10213A001F977BFF7A01792C1214937F0F7E00126E
:05214A0035FB122E1D03
:01214F00226D
:102150009002AB7401F0A37402F0A37466F0A37450
:1021600001F0A37402F0A37465F0A374FFF0A374EC
:0C21700001F074D7A3F07BFF7A097965B9
:10217C009002A8EBF0A3EAF0A3E9F09002CE74FF72
:10218C00F0A37401F0A374D2F09002B1122F3CEAC8
:10219C00494B6003121D0C9002CE74FFF0A3740126
:1021AC00F0A374D7F09002B1122F3CEA494B60387F
:1021BC009002ABE0F9A3E0FAA3E09002B7C9F0A358
:1021CC00EAF0A3E9F09002AEE0F9A3E0FAA3E09004
:1021DC0002BAC9F0A3EAF0A3E9F09002A8E0FBA3CD
:1021EC00E0FAA3E0F912264B9002CE74FFF0A37430
:1021FC0001F0A374DCF09002B1122F3CEA494B6061
:10220C0003121D0C9002CE74FFF0A37401F0A374A2
:10221C00E1F09002B1122F3CEA494B60389002ABCE
:10222C00E0F9A3E0FAA3E09002B7C9F0A3EAF0A3A7
:10223C00E9F09002AEE0F9A3E0FAA3E09002BAC98B
:10224C00F0A3EAF0A3E9F09002A8E0FBA3E0FAA364
:10225C00E0F9121F7F9002CE74FFF0A37401F0A37B
:10226C0074E6F09002B1122F3CEA494B60389002B0
:10227C00ABE0F9A3E0FAA3E09002B7C9F0A3EAF04F
:10228C00A3E9F09002AEE0F9A3E0FAA3E09002BA61
:10229C00C9F0A3EAF0A3E9F09002A8E0FBA3E0FAEE
:0722AC00A3E0F9122A0A2247
:100A330012363E122CFC1236297BFF7A0179EBAF7A
:100A4300A19002E5E4F0A3EFF01214931234F87BC3
:100A5300FF7A0179FF121493900220E4F0A304F0CB
:100A6300C209E49001D1F09002C874FFF0A37400AE
:100A7300F0A37428F07BFF7A00F9122777E4900241
:100A830064F030D826C2D8123327900264EFF0BF47
:100A93001519D2099002C874FFF0A37400F0A3746F
:100AA3002DF07BFF7A00792312277730091FC209C3
:100AB300123448900264EFF060137BFF7A02790FDF
:100AC300E0FF9002E5E4F0A3EFF01214937F4212EB
:100AD30032089002A6EEF0A3EFF0F47002EEF47089
:100AE30003020A5B9001D1E0B4090050F7900AF7C2
:100AF300F8282873020B12020BBD020C1D020CB660
:100B0300020FFF020DD7020E5F020EE7020D327BCA
:100B1300FF7A02792A9002A6E0FFA3E09002E5CFD4
:100B2300F0A3EFF01214937BFF7A02793B12149334
:100B33007BFF7A02794F1214937A03798C12284A35
:100B43007F057E001235FB7BFF7A0379A474FF9047
:100B530002CDF0A3F07D077C0012285812252690C1
:100B63000261EBF0A3EAF0A3E9F01235E2EF4E7075
:100B730003020A5B9002CE74FFF0A37402F0746365
:100B8300122F37EA494B600E9001D17401F09002A5
:100B9300D112252B801B9002CE74FFF0A37402F0B8
:100BA300A37468122F38EA494B60069001D174038D
:100BB300F07BFF7A02796D020E507BFF7A02793B5C
:100BC3001214937BFF7A02797F1214937A0379AB21
:100BD30012284A7F0F7E001235FB7BFF7A0379C30D
:100BE30074FF9002CDF0A3F07401FDFC122858129B
:100BF30035E2EF4E7003020A5B1225261225267B8F
:100C0300FF7A02799E1214937BFF7A02793B1214C6
:100C1300939001D17402F0020AE77BFF7A02793BD9
:100C23001214937BFF7A0279BB1214937BFF7A042D
:100C330079C412284C7F0F7E001235FB7BFF7A04A8
:100C430079DC74FF9002CDF0A3F07DCD7C021228F5
:100C5300587F147E001235FB1235E2EF4E70089078
:100C63000220F0A3F08024122526900261EBF0A36A
:100C7300EAF0A3E9F09002CE74FFF0A37402F0A3AC
:100C83007468F0122F44EA494B60C6900220E0706A
:100C930002A3E07003020A5B7BFF7A0279D9121484
:100CA300937BFF7A02793B1214939001D17403F082
:100CB300020AE77BFF7A02793B1214937BFF7A02E5
:100CC30079F51214937BFF7A0779A912284C7F0FC9
:100CD3007E001235FB7BFF7A0779C174FF9002CD4A
:100CE300F0A3F07D657C001228589002AB7401F0EC
:100CF300A37402F0A37466F0A37401F0A37402F06A
:100D0300A37465F0A374FFF0A37401F0A374D2F08D
:100D13007BFF7A0779A912217C900220E07002A35D
:100D2300E07003020A5B7BFF7A037908020E507BB3
:100D3300FF7A02793B1214937BFF7A037919121419
:100D4300937BFF7A08792612284C7F0F7E00123599
:100D5300FB7BFF7A08793E74FF9002CDF0A3F07D10
:100D63005E7C001228589002AB7401F0A37402F069
:100D7300A37466F0A37401F0A37402F0A37465F086
:100D8300A374FFF0A37401F0A374E6F07BFF7A0869
:100D9300792612217C900220E07002A3E070030206
:100DA3000A5B9002C874FFF0A37400F0A37433F0DD
:100DB3007BFF7A0079231227777BFF7A037930123E
:100DC30014937BFF7A02793B1214939001D17464DC
:100DD300F0020AE77BFF7A02793B1214937BFF7AD6
:100DE3000279F51214937B017A01795212284C7F10
:100DF3000F7E001235FB7BFF7A0779C174FF9002E7
:100E0300CDF0A3F07D657C001228589002AB7401ED
:100E1300F0A37402F0A37466F0A37401F0A3740248
:100E2300F0A37465F0A374FFF0A37401F0A374D26C
:100E3300F07BFF7A0779A912217C900220E07002EF
:100E4300A3E07003020A5B7BFF7A03790812149311
:100E53007BFF7A02793B121493020AE77BFF7A0243
:100E6300793B1214937BFF7A0379461214937BFF29
:100E73007A09791B12284C7F0F7E001235FB7BFF0A
:100E83007A09793374FF9002CDF0A3F07D327C00B0
:100E93001228589002AB7401F0A37402F0A3746695
:100EA300F0A37401F0A37402F0A37465F0A374FFBC
:100EB300F0A37401F0A374D2F07BFF7A09791B12BB
:100EC300217C900220E07002A3E07003020A5B7BA6
:100ED300FF7A0379551214937BFF7A02793B12143C
:100EE30093020F857BFF7A02793B1214937BFF7A7F
:100EF3000379621214937BFF7A09796512284C7F78
:100F03000F7E001235FB7BFF7A09797D74FF900217
:100F1300CDF0A3F07D077C001228581221509002D7
:100F230020E07002A3E07003020A5B122F2BEA4950
:100F33004B6003020F859002AB7401F0A37401F0C0
:100F430074D712302D7B017A0179D712284C7F0F89
:100F53007E001235FB7BFF7A0A793274FF9002CD53
:100F6300F0A3F07D017C001228581221509002203A
:100F7300E07002A3E07003020A5B122F2BEA494BD5
:100F830060099001D17407F0020AE79002AB740183
:100F9300F0A37402F0744912302D7B017A0279496F
:100FA30012284C7F0F7E001235FB7BFF7A09798470
:100FB30074FF9002CDF0A3F07D237C00122858909B
:100FC30002AB7401F0A37402F0A37466F0A374017E
:100FD300F0A37402F0A37465F0A374FFF0A374018B
:100FE300F074DC122174900220E07002A3E070031D
:100FF300020A5B9001D17404F0020AE77BFF7A02D4
:10100300793B1214937BFF7A0379721214937BFF5B
:101013007A08799C12284C7F0F7E001235FB7BFFE8
:101023007A0879B474FF9002CDF0A3F07D677C0059
:101033001228589002AB7401F0A37402F0A37466F3
:10104300F0A37401F0A37402F0A37465F0A374FF1A
:10105300F0A37401F0A374E1F07BFF7A08799C128A
:10106300217C900220E07002A3E07003020A5B7B04
:10107300FF7A0379801214937BFF7A02793B12146F
:0410830093020AE7E3
:1023F1005553422064657620696E0A005553422088
:10240100646576206F75740A005345545F504F52CE
:1024110054202025303258202025303258200052B7
:102421006573657420726F6F742068756220253141
:10243100642320706F72740A0044697361626C6571
:1024410020726F6F742068756220253164232070BB
:102451006F72742062656361757365206F662064B5
:102461006973636F6E6E6563740A004765744465D2
:102471007644657363723A20007825303258200023
:102481000A0047657443666744657363723A2000C6
:1024910069665F636C733020253032780A006966A3
:1024A1005F737562636C733020253032780A00697E
:1024B100665F70746C3020253032780A0069665F7F
:1024C100636C733420253032780A0069665F737556
:1024D10062636C733420253032780A0069665F705C
:1024E100746C3420253032780A00496E6974526F59
:1024F1006F7444657620457272203D202530325834
:102501000A00456E756D416C6C526F6F744465764F
:102511000A00526F6F74487562496E6465782025B0
:052521003032780A00D1
:0836DB00E490023FF0A3F0228D
:10332700E49002E1F0E5DA30E02590023FE0600545
:10333700E5D120E0381236DB90023F7401F07BFFC5
:103347007A2379F11214939002E17415F0801E909C
:10335700023FE0C3940140151236DB7BFF7A2379E5
:10336700FD1214939002E1E070037416F09002E1ED
:02337700E0FF75
:013379002231
:0C369A00EF547FFFE5E354804FF5E3227E
:0E368C00EF600753E2BF53D27F2243E2402299
:103529009001D67408F0E4FF12369A7F0112368CA6
:10353900E5D154FB4402F5D17F0A7E001235FB53D5
:0C354900D1FD7FFA7E00123670C2D8223D
:1034840090023FE0C3940150037401F0E5DA30E0A8
:1034940026E5D120E015E5DA30E1047F0080027FE3
:1034A40001900241EFF0700343D10443E20175D26D
:0A34B4004043D1017F00227F162261
:10340B00AE07EE602975F005A424EDF582E43401D6
:10341B00F583E0FF12369AEE75F005A424EEF582E3
:10342B00E43401F583E0FF701043D280800B9002EF
:0D343B0040E0FF12369AA3E0FF12368C220B
:1035C8007F907E0120D909EF1F70011EEF4E70F425
:0935D80030D9047F0080027FFE5F
:0135E10022C7
:0B292B009002DEEFF0A3EAF0A3EBF057
:10293600AF058FD68FD4E4F5DD9002DEE0F5D5C283
:10294600D97F907E0120D909EF1F70011EEF4E70CE
:10295600F4E4F5D520D9037FFE2230D823C2D8125D
:102966003327EFB41502D20990023FE0FE70037FD1
:102976001622EEB401037F15227FC87E0012367040
:1029860030D96730DE037F0022E5D9540FFFB40E3D
:10299600028043EFB40A299002DFE0FCA3E0FD4C7D
:1029A6007003EF803EC3ED94FFEC94FF500E90024F
:1029B600E0E024FFF09002DFE034FFF015DD802D2B
:1029C6009002DEE0C4540F24F7600D24FC6004245A
:1029D6000C7014EF6017800BEFB40304640B600DEA
:1029E600EF600A4420FF227FFE2275D8FF7F0F7E0C
:1029F6000012367005DDAFDDEFC3940350030229E4
:032A06003F7F20EF
:012A090022AA
:0B1A8600EBF07B007A007900E4FFFE2B
:0B1A91009002B3EBF0A3EAF0A3E9F031
:101A9C00E4A3F0A3F0AA06A9077B019002BA04F014
:101AAC00A3EAF0A3E9F09002B3E0F9A3E0FAA3E013
:101ABC009002BDC9F0A3EAF0A3E9F07FC87E001242
:101ACC0036709002BDE0FBA3E0FAA3E0F9EA494BC3
:101ADC006004E41218EB75D7087B107A27E4FD7FBD
:101AEC00D012292B9002B8EFF06003E0FF2275D6DC
:101AFC00D075D4D075D701900047E0FE900046E039
:101B0C00FDEDFF9002B6EEF0A3EFF04E7003021C59
:101B1C00D99002BAE0FBA3E0FAA3E0F9EA494B70D2
:101B2C0003021CD9900040E020E703021BEA90025C
:101B3C00B6E07002A3E07003021BE47FC87E0012C3
:101B4C0036707B107A27ADD47F9012292B9002B877
:101B5C00EFF0E0FF600122AFDB9002B6E0FCA3E007
:101B6C00FDD39FEC94004004AFDB8002AF059002E4
:101B7C00B9EFF0E0FFC39002B7E09FF09002B6E03F
:101B8C009400F09002BDE0FBA3E0FAA3E0F9EA496F
:101B9C004B6004EF1218C9E4FF9002B9E06F6028A3
:101BAC0074002FF582E43400F583E0FE9002BAE075
:101BBC00FBA3E0FAA3E0F9EE1218EB9002BBE4757C
:101BCC00F00112191F0F80D1E5DB600C9001D6E0FB
:101BDC001455DB7003021B3AE4F5D7021CD99002B2
:101BEC00B6E07002A3E07003021CD97FC87E00121D
:101BFC0036709001D6E0FFFD9002B6E0FAA3E0FB50
:101C0C00C39DEA940040028002AF038FD79002BAC2
:101C1C00E0FBA3E0FAA3E0F990000112189C640920
:101C2C007037900207E06401F01218EB9002BAE0F2
:101C3C00FBA3E0FAA3E0F9121883FF9002E5E4F0AD
:101C4C00A3EFF0900207E0FF9002E7E4F0A3EFF0BF
:101C5C007BFF7A24790A121493E4FFEF65D760288E
:101C6C009002BAE0FBA3E0FAA3E0F9121883FE7429
:101C7C00402FF582E43400F583EEF09002BBE4755E
:101C8C00F00112191F0F80D37B107A27ADD67F106D
:101C9C0012292B9002B8EFF0E0FF600122AFD7C3FE
:101CAC009002B7E09FF09002B6E09400F09002BD75
:101CBC00E0FBA3E0FAA3E0F9EA494B7003021BEA4C
:101CCC009002BDA3A3E5D71218C9021BEA7FC87EF8
:101CDC0000123670E5D760047F9080027F107B1075
:101CEC007A277DC012292B9002B8EFF06003E0FF39
:0F1CFC0022E5D77002FF22E5DB7002FF227F177F
:011D0B0022B5
:1035A800E4FD8F828E83E493FC74402DF582E4342D
:0F35B80000F583ECF00FBF00010E0DEDB408E33A
:0135C70022E1
:1034BE009001D67408F07E0A7F0A1235A87E007F2E
:1034CE00407B017A0279B2121A91EF6001229000CC
:1034DE0047E09001D6F0900A10E493FF9002B2E01C
:0934EE00C39F50037F17227F00E9
:0134F70022B2
:103199007E0A7F121235A87E007F407B017A027970
:1031A900B2121A91EF600122900A18E493FE90027C
:1031B900B2E0C39E50037F1722900042E09002B212
:1031C900F07E0A7F121235A89002B2E0900046F014
:1031D9007E007F407B017A0279B2121A91EF600179
:1031E90022900A18E493FF9002B2E0FEC39F4009BF
:0E31F900900042E0FFEE9F50037F17227F0000
:0132070022A4
:053555009002B2EFF04E
:10355A007E0A7F1A1235A89002B2E0900042121A2F
:10356A0087EF6001229002B2E0FF12369A7F0A7E4C
:06357A00001235FB7F008A
:013580002228
:10365000AB077E0A7F221235A8900042121A8622FA
:10366000AB077E0A7F2A1235A8900044121A8622E0
:051087009002A8EFF04B
:10108C00E4A3F07BFF7A2479209002E5F0A3EFF043
:10109C00121493E49002AAF09002A9E0FFA3E0C31B
:1010AC009F501E7F2C7E011235FB9002A9E0D39439
:1010BC000A40069002ABE0FF229002AAE004F08006
:1010CC00D7123529E49002AAF0A3F07F017E00121A
:1010DC0035FB123484EF700E9002AAF0A3E004F0FA
:1010EC00E0D39419500C9002AAE004F0E0C394648D
:1010FC0040D99002AAE060191236DB7BFF7A247982
:10110C003A9002A8E0FF9002E5E4F0A3EFF012148D
:10111C0093E4FF12340B7BFF7A24796C1214931234
:10112C0034BE9002ABEFF060030213FE9002AAF003
:10113C00900A10E493FF9002AAE0FEC39F50257B17
:10114C00FF7A24797A74402EF582E43400F583E03A
:10115C00FF9002E5E4F0A3EFF01214939002AAE0E2
:10116C0004F080CC7BFF7A24798112149390004494
:10117C00E09002ADF0900A1CE493FF9002A8E02FDF
:10118C00FF1235559002ABEFF060030213FE900A8C
:10119C001C93FF9002A8E02F900240F07BFF7A2472
:1011AC0079831214931231999002ABEFF060030221
:1011BC0013FE900045E09002ACF0900044E09002E9
:1011CC00B1F0E49002AAF0900042E0FF9002AAE095
:1011DC00FEC39F50257BFF7A24797A74402EF582CA
:1011EC00E43400F583E0FF9002E5E4F0A3EFF012A5
:1011FC0014939002AAE004F080CD7BFF7A247981CD
:10120C0012149390004EE0FF9002AEF090004FE06D
:10121C009002AFF0900050E09002B0F0BFFF109041
:10122C0002AFE0B44209A3E0640170030213597BDE
:10123C00FF7A2479919002AEE0FF9002E5E4F0A3EE
:10124C00EFF01214937BFF7A24799F9002AFE0FFAA
:10125C009002E5E4F0A3EFF01214937BFF7A24796B
:10126C00B09002B0E0FF9002E5E4F0A3EFF01214AE
:10127C00939002B1E0D3940150030213599002AA47
:10128C007412F0900042E0FF9002AAE0FEC39F406F
:10129C000302135974402EF582E43400F583E064A4
:1012AC0009600302134174412EF582E43400F58386
:1012BC00E06404600302134174452EF582E43400AB
:1012CC00F583E0FF9002AEF074462EF582E4340014
:1012DC00F583E09002AFF074472EF582E43400F50C
:1012EC0083E09002B0F07BFF7A2479BE9002E5E4B3
:1012FC00F0A3EFF01214937BFF7A2479CC9002AF19
:10130C00E0FF9002E5E4F0A3EFF01214937BFF7A78
:10131C002479DD9002B0E0FF9002E5E4F0A3EFF059
:10132C001214939002AEE0B4FF0BA3E0B44206A3F8
:10133C00E0640160189002AAE02440F582E43400D5
:10134C00F583E0FF9002AAE02FF002128F9002AE1C
:10135C00E0F4706FA3E064427069A3E06401706311
:10136C009002AAE0FD244BF582E43400F583E0FE04
:10137C0030E710540F900243F074522DF582E43490
:10138C0000801D9002AAE0FD2452F582E43400F5A1
:10139C0083E0540F900243F0744B2DF582E434003B
:1013AC00F583E0900244F09002ACE0FF12365090CE
:1013BC0002ABEFF0703C90023F7403F09002427469
:1013CC004280279002ACE0FF1236509002ABEFF057
:1013DC00702090023F7403F09002ADE0FF60028039
:1013EC00059002AEE0FF90023FEFF07F0112368CC9
:1013FC001F227BFF7A2479EB9002ABE0FF9002E591
:10140C00E4F0A3EFF012149390023F7402F07F010A
:0C141C0012368C9002A9E004F002109F30
:10344800E47816F67BFF7A2579031214937BFF7ACA
:103458002579137816E6FF9002E5E4F0A3EFF01261
:10346800149390023FE0B401107816E6FF1210871B
:0B3478007815EFF66003E6FF227F00EE
:013483002226
:02320800A90714
:10320A00E4FF900242E0FDB5010E90023FE0C39454
:10321A00034005EF7F00FE22ED6409704390023FF0
:10322A00E0C39403403A7D01900243E0FEEDD39E51
:10323A00502EED75F005A424EFF582E43401F583F0
:10324A00E0697019ED75F005A424ECF582E4340107
:10325A00F583E0C394034005EFFEEDFF220D80C81D
:0A326A000FEF6402709C7EFF7FFFEF
:013274002237
:1034F800C2EA75E28053D17FE4F5E375EB4875E5E0
:103508000075E40075E70075E640F5D4F5D675E278
:103518008875D8FFFF1236DB0FEFB402F875E103A8
:013528002280
:03000000022D913D
:0C2D9100787FE4F6D8FD758121022DD872
:10178D00E709F608DFFA8046E709F208DFFA803E3E
:10179D0088828C83E709F0A3DFFA8032E309F6082B
:1017AD00DFFA8078E309F208DFFA807088828C8393
:1017BD00E309F0A3DFFA806489828A83E0A3F60847
:1017CD00DFFA805889828A83E0A3F208DFFA804C21
:1017DD0080D280FA80C680D4806980F280338010F8
:1017ED0080A680EA809A80A880DA80E280CA803361
:1017FD0089828A83ECFAE493A3C8C582C8CCC583D9
:10180D00CCF0A3C8C582C8CCC583CCDFE9DEE780A8
:10181D000D89828A83E493A3F608DFF9ECFAA9F027
:10182D00EDFB2289828A83ECFAE0A3C8C582C8CC7D
:10183D00C583CCF0A3C8C582C8CCC583CCDFEADE96
:10184D00E880DB89828A83E493A3F208DFF980CCF8
:10185D0088F0EF60010E4E60C388F0ED2402B404F1
:10186D000050B9F582EB2402B4040050AF23234598
:06187D0082239017DD73C9
:10188300BB010689828A83E0225002E722BBFE0263
:09189300E32289828A83E4932296
:10189C00BB010CE58229F582E5833AF583E0225001
:1018AC0006E92582F8E622BBFE06E92582F8E2224B
:0D18BC00E58229F582E5833AF583E4932265
:1018C900BB010989828A83F8E028F022500327F7AF
:1018D90022BBFE05F8E328F3228A838982F8E49380
:0218E9002822B3
:1018EB00BB010689828A83F0225002F722BBFE01DC
:0218FB00F322D6
:1018FD00F8BB010DE58229F582E5833AF583E8F021
:10190D00225006E92582C8F622BBFE05E92582C8CC
:02191D00F222B4
:10191F00C5F0F8A3E028F0C5F0F8E5821582700253
:06192F001583E038F022F0
:1019350075F008758200EF2FFFEE33FECD33CDCC69
:1019450033CCC58233C5829BED9AEC99E5829840EC
:101955000CF582EE9BFEED9AFDEC99FC0FD5F0D6C9
:10196500E4CEFBE4CDFAE4CCF9A88222B800C1B9F3
:101975000059BA002DEC8BF084CFCECDFCE5F0CB31
:10198500F97818EF2FFFEE33FEED33FDEC33FCEB6A
:1019950033FB10D703994004EB99FB0FD8E5E4F925
:1019A500FA227818EF2FFFEE33FEED33FDEC33FC12
:1019B500C933C910D7059BE99A4007EC9BFCE99A06
:1019C500F90FD8E0E4C9FAE4CCFB2275F010EF2F4B
:1019D500FFEE33FEED33FDCC33CCC833C810D7074B
:1019E5009BEC9AE899400AED9BFDEC9AFCE899F886
:0E19F5000FD5F0DAE4CDFBE4CCFAE4C8F92219
:0C1A0300ECF0A3EDF0A3EEF0A3EFF02256
:101A0F00A8828583F0D083D082121A26121A26124A
:101A1F001A26121A26E473E493A3C583C5F0C5836F
:101A2F00C8C582C8F0A3C583C5F0C583C8C582C821
:011A3F002284
:10142800E51024E5F582E43402F583E00510229006
:1014380002E23007039002E5E475F001121A400257
:1014480018832000E97F2ED2008018EF540F2490D3
:10145800D43440D4FF30040BEF24BFB41A00500337
:101468002461FFE511600215110514E514700205E9
:101478001330070E9002E2E475F001121A40EF02F1
:1014880018EB0235817403D2078003E4C207F51014
:101498009002E2121A57E4F511F513F514E51160FC
:1014A800077F2012146B80F57512FFC201C200C2BB
:1014B80002C203C205C206C208121437FF700D30FB
:1014C80007057F0012147CAF14AE1322B4255FC247
:1014D800D5C204121437FF24D0B40A00501A75F08C
:1014E8000A781130D50508B6FF0106C6A426F620ED
:1014F800D5047002D20380D924CFB41A00EF500467
:10150800C2E5D20402167DD20180C6D20080C0D2C4
:101518000280BCD2D580BAD20580B47F2012146B69
:101528002002077401B5110040F1121428FF1214AB
:101538006B0214A5D208D2068095121428FB121447
:1015480028FA121428F94A4B7006794E7A177BFF4D
:1015580020022EE511602A7E008E82758300121803
:101568009C60060EEE651270F0C2D5EBC0E0EAC0D2
:10157800E0E9C0E0EE1216C4D0E0F9D0E0FAD0E01D
:10158800FB121883FF60AAEBC0E0EAC0E0E9C0E004
:1015980012146BD0E02401F9D0E03400FAD0E0FB5B
:1015A800E5120460DCD512D980877BFF7A1679C0F2
:1015B800D202809C791080027908C206C20880088D
:1015C800D2D5790A8004790AC2D5E512047002F5E9
:1015D80012E4FAFDFEFF121428FC7B082001131206
:1015E8001428FD7B1030000A121428FE121428FF5C
:1015F8007B20EC3382D592D55013C3E43000069F8C
:10160800FFE49EFEE42001039DFDE49CFCE4CBF88E
:10161800C201EC700CCFCECDCCE824F8F870F38082
:1016280017C3EF33FFEE33FEED33FDEC33FCEB3342
:10163800FB994002FB0FD8E9EB300105F8D0E0C474
:1016480048B201C0E00AEC4D4E4F78207B0070C2D2
:10165800EAB5120040BCC0E01216C6D0F0D0E020B7
:101668000104C4C0E0C4B201C0F0121454D0F0D5D3
:10167800F0EB0214A5121A6015425315BC58151345
:101688004C150F4215C04F15C84415C849152843B5
:0816980015CE5515B24615B23E
:1016A0004515B247176E5015172D151B2E153E2BDD
:1016B000151F23153C2017572A14D748000015364C
:1016C0003F3F3F00790AA2D5200314300509B91025
:1016D000020404B9080104A2D52006025001042026
:1016E00002689202B511005034C0E07F2030031927
:1016F0007F30A20272067205500F12171DC202C27D
:1017000006C205C2087F30800F300503E9C0E01231
:10171000146B300503D0E0F9D0E0B511CC300517DB
:101720007F30B9100C12146B7F583004077F78801B
:1017300003B9080312146B3002057F2D02146B7F6E
:10174000202008F87F2B2006F322920280CF286EFB
:10175000756C6C2900D2011214283001F8C201788E
:101760001130D50108F60214D72D504349581214F0
:10177000282403B405004001E49017699312145C17
:0D178000743A12145CD2037511040215BCFA
:102AE7009002D1EBF0A3EAF0A3E9F0A3E0FBA3E0A7
:102AF700FAA3E0F91218837003022B939002D1E036
:102B0700FBA3E0FAA3E0F91218837003022B9F904E
:102B170002D4E0F9A3E0FAA3E0A3C9F0A3EAF0A383
:102B2700E9F09002D1A3E0FAA3E0F99002DAEBF022
:102B3700A3EAF0A3E9F09002D7E0FBA3E0FAA3E051
:102B4700F9121883FF60269002DAE0FBA3E0FAA3EC
:102B5700E0F91218836F70159002D875F0011219F9
:102B67001F9002DBE475F00112191F80C99002D78C
:102B7700E0FBA3E0FAA3E0F91218837002800D903E
:102B870002D2E475F00112191F022B039002D1E063
:0F2B9700FBA3E0FAA3E0F9227B007A0079002289
:102D9D00020A33E493A3F8E493A34003F68001F20F
:102DAD0008DFF48029E493A3F85407240CC8C33337
:102DBD00C4540F4420C8834004F456800146F6DF06
:102DCD00E4800B01020408102040809022B3E47EC1
:102DDD00019360BCA3FF543F30E509541FFEE493FB
:102DED00A360010ECF54C025E060A840B8E493A3C2
:102DFD00FAE493A3F8E493A3C8C582C8CAC583CAED
:102E0D00F0A3C8C582C8CAC583CADFE9DEE780BEA4
:0123F00000EC
:101A4000F8E0FBA3A3E0F925F0F0E582158270022F
:071A50001583E0FA38F022D3
:091A5700EBF0A3EAF0A3E9F02290
:101A6000D083D082F8E4937012740193700DA3A315
:101A700093F8740193F5828883E473740293686029
:061A8000EFA3A3A380DF29
:10358100EFB40A07740D12358C740A309811A8999A
:10359100B8130CC2983098FDA899C298B811F630AA
:0735A10099FDC299F5992282
:00000001FF
